:0A0000000C946C000C9400000C94AA
:10000A0000000C9400000C9400000C9400000C9466
:10001A0000000C9400000C9400000C9400000C9456
:10002A0000000C9400000C9400000C9400000C9446
:10003A0000000C9400000C9400000C9400000C9436
:10004A0000000C9400000C9400000C9400000C9426
:10005A0000000C9400000C9400000C9400000C9416
:10006A0000000C9400000C9400000C9400000C9406
:10007A0000000C9400000C9400000C9400000C94F6
:10008A0000001027E80364000A00010000100001C4
:10009A001000010058414E474C45203A202535644E
:1000AA000059414E474C45203A20253564002564C5
:1000BA00000080C001002D4E414E00494E4600000E
:1000CA0002000005BC0001000405BE000000F8940F
:1000DA00EE27ECBBF1E0F5BFE5BFE0936C008DE0E5
:1000EA00A2E0BB27ED938A95E9F780E090E1A0E0D2
:1000FA00B1E0ED930197E9F7EAECF0E0859195918B
:10010A00009761F0A591B59105901590BF01F00196
:10011A0005900D920197E1F7FB01F0CF8BBFEFEF4E
:10012A00EDBFE0E1EEBFC0E0D5E00C949C00EF9794
:10013A002997E0E0D6D5EC83ED83EE83EF8332D0C6
:10014A00DE011C96D3D0FE013C96FA93EA93DE01B7
:10015A00129621D1FE01F496FA93EA93EEE9F0E0C1
:10016A00FA93EA93B2D4B6D4FE01B096FA93EA931C
:10017A00EBEAF0E0FA93EA93B4D4ACD4E0E0EA9381
:10018A00A0E0F0D1DE01D49621D2E0E0EA93A1E02A
:10019A00E9D1DE0190961AD2FE01ACE0B1D587D141
:1001AA00CFCFFFCFA0E133D213D0E0EDEA93EBE655
:1001BA00EA93A0E017D0E0E0EBB9E8EAEAB9E6E0B2
:1001CA00E0939500E0E0E0939000E7E6E9B908954E
:1001DA00EAE4E0937000E0E0E0937100A4E6B0E0A6
:1001EA0055D7089538D51A2F0C813D817FD4E091D7
:1001FA007400E07811F081D409F0F9CF83D4E0914A
:10020A007400E07811F084D409F0F9CF00937300F8
:10021A00E4E8E0937400E0917400E07811F07DD492
:10022A0009F0F9CF10937300E4E8E0937400E091C9
:10023A007400E07811F071D409F0F9CFE4E9E093A1
:10024A00740010D52696089506D53A2F2C814ED4DF
:10025A00E0917400E07811F050D409F0F9CF2093BE
:10026A00730060D4E0917400E07811F051D409F081
:10027A00F9CF48D488EC90E00197F1F7E091740047
:10028A00E07811F04AD409F0F9CFE4EAE093740077
:10029A00E0917400E07829F0E0917100E87FE031A4
:1002AA0009F0F6CFE22FEF5FE09373003BD4E091C1
:1002BA007400E07829F0E0917100E87FE03409F0F9
:1002CA00F6CF30D4E0917400E07829F0E091710023
:1002DA00E87FE83509F0F6CF009173001127E4E9C9
:1002EA00E0937400F801BED4259608951A930A93F0
:1002FA008D01E0EDEA93ABE3A7DFD801ED93FC9320
:10030A00E0EDEA93ACE3A0DFD8011296ED93FC93FB
:10031A00E0EDEA93ADE398DFD8011496ED93FC93F0
:10032A00E0EDEA93AEE390DFD8011696ED93FC93E5
:10033A00E0EDEA93AFE388DFD8011896ED93FC93DA
:10034A00E0EDEA93A0E480DFD8011A96ED93FC93DE
:10035A00E0EDEA93A3E478DFD8011C96ED93FC93D1
:10036A00E0EDEA93A4E470DFD8011E96ED93FC93C6
:10037A00E0EDEA93A5E468DFD8015096ED93FC938B
:10038A00E0EDEA93A6E460DFD8015296ED93FC9380
:10039A000991199108956C975ED48D0128A139A10C
:1003AA00D901C8D31296CDD3EA8FFB8FD9011496FF
:1003BA00C1D31696C6D3EC8FFD8FD9011896BAD33E
:1003CA001A96BFD3EE8FFF8FD9011C96B3D31E9610
:1003DA00B8D3EC8BFD8BD9015096ACD35296B1D3DE
:1003EA00EE8BFF8BEC89FD89B1D3E88BF98B6A8B95
:1003FA007B8BEE89FF89AAD3EC87FD876E877F877F
:10040A00EA8DFB8DADD3E887F9876A877B87EC8D08
:10041A00FD8DA6D3EC83FD836E837F83D80144D4FC
:10042A007F936F93FF93EF93A889B9898A899B89F0
:10043A00AED3AF91BF918F919F91AFD37F936F93BB
:10044A00FF93EF934ED3B0D3AF91BF918F919F910A
:10045A001CD5D8012ED4F801A481B5818681978153
:10046A009F938F93BF93AF93AC85BD858E859F85F0
:10047A008ED3AF91BF918F919F918FD37F936F93BB
:10048A00FF93EF9322D390D3AF91BF918F919F9116
:10049A00FCD4D80114960E945E06E4D3A29608956D
:1004AA001A931A2F5D9BFECF1CB919910895A8972C
:1004BA001A930A9300E010E0FE013296FA93EA9347
:1004CA00E8EBF0E0FA93EA93EEA5FFA568A979A90B
:1004DA0001D370D3EC91E03031F06CD3AC91E0DF12
:1004EA000F5F1F4FF6CF19810881E6960895FFE046
:1004FA00FA95F1F70895AAB3AF70AABBD99AD8981A
:10050A00F6DFDA9AF4DFA9B3DA98F1DFDA9AEFDFE5
:10051A00DA98A7FDF5CF0895A07FAB2BABBBDA9A8B
:10052A00E6DFDA98E4DF0895AA93D998AAB3A76F09
:10053A00AABBBBB3BF70A881EFDFA881A295ECDF8D
:10054A00D99A0C943C03DA9AD2DFE9B3DA98CFDF6E
:10055A00E07F0895CCDFF7DFAE2FF5DFD998E2957B
:10056A00EA2B0895AA93C7DFE881F0E0E050FB4F39
:10057A00E081A981AE0FD8DF59804880229608957C
:10058A00BADFA2E0D1DFB7DFACE0CEDFB4DFA1E0B3
:10059A00CBDFE0E04E2E5E2E0895AA93EF93FF93F1
:1005AA00A8816894AA3019F0E894571430F043945B
:1005BA00E0E0EA93A42DD6DF2EF053949CDFD89A7C
:1005CA00A881B2DFFF91EF910C943C03BA93AA93EE
:1005DA001A93A981BA81ED91A983BA831E2FE030BB
:1005EA0019F0A12FDADFF5CF188123960895AA27EB
:1005FA00BB271197F1F70895AA93D998AAB3A76FC1
:10060A00AABBBBB3BF70A88187DFD99A30C0AA93AF
:10061A00DA98D8987880E881E058E0930205E88172
:10062A00E054E0930305E3DFA0E3E6DFE0DFA0E3C5
:10063A00E3DFDDDFA0E3E0DFDADFA0E2DDDFD7DF43
:10064A00A8E272DFD4DFA4E06FDFD1DFA5E86CDFB8
:10065A00CEDFAAB3AF70AABBD99A7CDFE53011F01E
:10066A00E0E005C048DFA6E05FDF8ADFE1E021962F
:10067A000895EFD29D015E81129612D33097E1F070
:10068A00D90114960DD38F01309759F00230E0E06A
:10069A001E0760F0F80131978F01D9011496ED9386
:1006AA00FC93D90112968BD231975083D901F8D293
:1006BA00FF230AF084D205C0D901EFEFFFEFED93D3
:1006CA00FC93CED227960895BA93AA932697C1D2BD
:1006DA0010E0AC85BD85E0E0F0E0ED93FC93EA899B
:1006EA00FB893196EA8BFB8B3197E4912E2FE03010
:1006FA0009F409C1E12FE03031F4253211F411E097
:10070A0001C063D2FFC0E130A1F4253211F45DD2F9
:10071A00F8C012E040E000E02D3211F401E0F2C02E
:10072A002B3211F44BE2EEC0203211F440E2EAC05F
:10073A0002C0E23039F450E013E0203311F40068CB
:10074A00E1C003C0E33009F0DDC0203310F02A33E2
:10075A0008F007C0AAE05A9F502DE22FE0535E0F1F
:10076A00D1C0E22FE33639F437D2E889F989A48176
:10077A00AA9338D2C6C0E33729F42ED239D28CD103
:10078A001E2F07C0E03749F427D232D291D11E2F4B
:10079A00086002600F7730E038C0E43611F0E936BD
:1007AA0011F4046002C0E53731F4ECE8F0E0EE83BE
:1007BA00FF8315E00CC0E83511F4086003C0E83780
:1007CA0009F09FC0E6E9F0E0EE83FF8314E002FF40
:1007DA0015C002D2A889B9891496ED91FD91EA87CC
:1007EA00FB87AB85AA2322F44AD2EA87FB874DE22C
:1007FA00403011F01F5F01C00B7F07C0EDD1A889FF
:10080A00B98914964DD2EA87FB8700FD10C01517E7
:10081A0070F407FF08C002FF04C00B7F242F115099
:10082A0001C020E301C020E2D0D15150F0CF312FD6
:10083A0001FF16C0303099F003FF06C0EE81FF8138
:10084A002591EE83FF8305C0AE81BF812D91AE83D2
:10085A00BF83BBD1503009F051503150EBCF48C063
:10086A0020E3EE81FF812AD2E887F987EE81FF81B2
:10087A003296EE83FF83E885F985AA85BB85AE1794
:10088A00BF0750F02F5FA885B985EA85FB85EA1B6B
:10089A00FB0BEA87FB87EFCF2A3328F003FF02C05E
:1008AA00295F01C0295D04FD19C0213320F4A88500
:1008BA00B985119709F409C0531710F000FF01C058
:1008CA0011C020E207FF0AC020E3006102FF06C050
:1008DA000B7F4A9387D1503009F0515076D150306E
:1008EA0009F051503150A885B985129708F0B8CF50
:1008FA0000FF07C0503029F05150E0E2EA9372D16C
:10090A00F9CF10E0ECCEAC85BD85ED91FD91A8D173
:10091A0064960895FF92F82E26979BD1FE01A7D1DF
:10092A0046855785042E052A19F4EFEFFFEF1FC0FD
:10093A00DE011896A0D18D0148875987E0E0EA8741
:10094A00EB87DE011C9697D1ED91FD91FA93EA931C
:10095A001A930A93EEE3F3E0FA93EA93DE011C9604
:10096A00B3DE9F01A885B985E0E0EC93F90178D15F
:10097A002C96FF900895BFD12497A7D043D148D190
:10098A0049D1A5E6B0ED8BEC90E446D13BD17F93FB
:10099A006F93FF93EF933ED1A0E0BDE689E291E425
:1009AA0074D241D139D1AF91BF918F919F910AD31E
:1009BA0028960895A0D137D1EDECF3E164ED7EE3FA
:1009CA0045D318F430D1D7DF24C02DD1EAE7F2E8B5
:1009DA006AE170E43BD309F008F409C026D12BD1AF
:1009EA00ABEDBFE089EC9FE393D148D212C01DD191
:1009FA0045D27F936F93FF93EF9317D146D2AF916E
:100A0A00BF918F919F9117D1ABEDBFE089E49FE32E
:100A1A003CD2249608956FD1249757D086D1A9F451
:100A2A0060D083D129F4EFEFFFEF6FE77FE732C0A1
:100A3A0006D17FD12CF4EBEDFFE069EC7FE32AC00D
:100A4A00EBEDFFE069EC7FEB25C03FD0F8D0BAD2DE
:100A5A00DFD0AC81BD818E819F816BD14CF4AB8597
:100A6A00AA231AF0E0D0A6DF15C0EED068D112C0D2
:100A7A00AB85AA2342F0E8D0ABEDBFE089E490E46D
:100A8A0047D1FCD107C0CFD095DFABEDBFE089E4F9
:100A9A0090ECFBD12C960895BA93AA93A991B99197
:100AAA00EE27FF276D91662311F03196FBCF08954B
:100ABA00BA93AA93AA27BB27E991F9910590002036
:100ACA0011F01196FBCFFD010895EC81FD816E8135
:100ADA007F81089569D1DFD009D184E01BDF289690
:100AEA000895E885F9856A857B850895A1E0B0E0D7
:100AFA00CDD2E4EAE09374000895E0917100E87FB2
:100B0A00E830089530937300E4E8E09374000895A0
:100B1A00E0917100E87FE8310895E0917100E87F83
:100B2A00E8320895E4E8E093740088EC90E00197D5
:100B3A00F1F70895ED91FD91FE2FE0E00F01D90143
:100B4A000895ED91FD91E029F1290895A4D063D18A
:100B5A00DF01CB01E0E0F0E063E073E433D2089513
:100B6A009AD059D1C3D0EAA1FBA195D054D1DF01C3
:100B7A00CB0151DFA0E0B0E084E393E4D5D1DF01FB
:100B8A00CB01EBEDFFE069E470E41CD20895EFE6D7
:100B9A00F2E163E87AE3C8D1089577D1A8E4B1EE27
:100BAA008AE79FE3C1D10895AAE0B7ED83EA9CE3FF
:100BBA00BBD10895DE011296A00FB11F0895ED91E1
:100BCA00FD913196FE93EE9308952A93AD85BE85E5
:100BDA00EF85F88909950895E889F9893497E88BAA
:100BEA00F98B0895AD85BE85EF85F8890995089535
:100BFA00A889B9891496ED91FD91EE83FF83AE81A0
:100C0A00BF810895AC81BD818E819F818DD1089568
:100C1A0063D0089557D0089587D1AEE4BFE88AE437
:100C2A0091E433D1089553D00895F4DFA0E0B0E001
:100C3A0080E89FE30895C6D1DF01CB019CCEA88549
:100C4A00B9858A859B850895E5DF79D0DF01CB01D7
:100C5A00B1CE5A934A933A932A931A930A930895D0
:100C6A005D814C813B812A81198108810895002484
:100C7A00EF0DF01D08950024AF0DB01D0895F195F4
:100C8A00E195F0400895F09560957095E195FF4FD4
:100C9A006F4F7F4F08956F2F660F660B762F08955B
:100CAA00ED91FC9111970895ED91FD916D917D91D2
:100CBA000895ED93FD936D937C9308950590F491B7
:100CCA00E02D0895E881F9816A817B810895A881E0
:100CDA00B9818A819B810895E883F9836A837B833A
:100CEA000895E883E983EA83EB8308957A936A9304
:100CFA00FA93EA9308959A938A93BA93AA930895D2
:100D0A00BB27EA0FFB1F02900A921197E1F7089599
:100D1A00182E862F612D192E972F712D1B2EBF2F5E
:100D2A00F12D1A2EAE2FE12D0895309760407040B4
:100D3A00089500240A160B06080609060895309736
:100D4A006040704009F070580895552342F45038B5
:100D5A0011F4E0FF04C03196691F791F6BF050E867
:100D6A00572711F45F93CFC05F3F31F0660F000C35
:100D7A0057956795752F08955F9300200AF0CEC0A6
:100D8A00C7C050E8192E1522880F991F9527550FAD
:100D9A00879550E8072E0522660F771F7527550F8E
:100DAA0067950895689401C0E8945F93F2DF7038FC
:100DBA0018F07F3F08F4A7C056E1571BAAF45195D3
:100DCA0058300EF4593030F0EFEFFFEF6FEF7FE756
:100DDA0077F91AC077275523B9F0EE0FFF1F661F60
:100DEA00771F5A95D1F710C07727583028F0EF2F80
:100DFA00F62F672F5850F9CF552331F0769567951E
:100E0A00F795E7955A95D1F700200AF43CDF5F91F0
:100E1A000895689401C0E894309760407040B1F03A
:100E2A00002426F0772312F400942DDF172E7EE19A
:100E3A00112032F07A95EE0FFF1F661F111CF9CFB1
:100E4A00EF2FF62F612D5F938ADF5F9108954F93FD
:100E5A00AF01FD01DA01AB01BC01CA01402D012C31
:100E6A00142E4F910895EA0FFB1F681F0895E0950D
:100E7A00F0956095EF5FFF4F6F4F08955F9381DFA5
:100E8A00903871F150E8152604C05F937ADF9038E4
:100E9A0039F1703821F1572F591B2BF112F4D7DF92
:100EAA00FACF583118F0AA27BB278827583028F0DC
:100EBA00AB2FB82F88275850F9CF552329F086959C
:100ECA00B795A7955A95D9F7502D512572F0CBDFD2
:100EDA0038F46795F795E795739513F41FC0B7DF54
:100EEA003EDF5F910895D8F7FBCFEA1BFB0B680B37
:100EFA0051F010F40094BBDF662392F3EE0FFF1F4C
:100F0A00661F7A95CBF7EE27FF27BF015F910895F9
:100F1A00EFEFFFEF6FE77FEF5F910895EFEFFFEFDE
:100F2A006FE77FE75F9108955F932BDF703859F37E
:100F3A00903849F301240894791F23F424F30020FC
:100F4A003AF3ECCF0F921F932F933F934F931127AE
:100F5A0022279927689FA0018F9F302D410D591F85
:100F6A006B9F300D411D591F8E9F27D0BF9F25D0E3
:100F7A006A9F23D0BE9F1DD0AF9F1BD0AE9F110D7D
:100F8A00291F391F491F591FE32FF42F652F522F8D
:100F9A004F913F912F911F910F9066232AF0550F81
:100FAA00EE1FFF1F661F02C073954BF2CEDE5F91E4
:100FBA000895100D211D391F02C0200D311D491F32
:100FCA00591F08955F93DDDE703821F411200AF469
:100FDA009FCFA4CF903809F496CF01240894970B99
:100FEA001BF4D4F30020F3CF792F1F932F933F9351
:100FFA004F931124112722273327A90190E2AE1714
:10100A00BF078607410730F0AE1BBF0B860B410BAB
:10101A00089401C08894551F221F331F111CAA1F50
:10102A00BB1F881F441F9A9551F7F901612D4F91F3
:10103A003F912F911F91662332F0550FEE1FFF1F2C
:10104A00661F7A954BF281DE5F91089599239AF093
:10105A00772342F0971748F029F4AE17BF0786079F
:10106A0020F031F0989488940895989408940895FB
:10107A001894889408957723C2F7971798F3A9F7D5
:10108A00EA17FB07680788F399F3ECCF109639F053
:10109A00A89580EA9FE00197F1F71197C9F708959B
:00000001FF
